:100000000C9474000C949C000C949C000C949C0028
:100010000C949C000C949C000C949C000C949C00F0
:100020000C949C000C949C000C949C000C949C00E0
:100030000C949C000C949C000C949C000C949C00D0
:100040000C948B050C949C000C9459050C9433056E
:100050000C949C000C949C000C949C000C949C00B0
:100060000C94D5050C949C00084AD73B3BCE016EFE
:1000700084BCBFFDC12F3D6C74319ABD56833DDAFF
:100080003D00C77F11BED9E4BB4C3E916BAAAABE0E
:10009000000000803F0000000000250028002B0029
:1000A00000000000240027002A00040404040404C3
:1000B0000404020202020202030303030303010217
:1000C00004081020408001020408102001020408E6
:1000D00010200000000800020100000304070000D7
:1000E000000000000000030711241FBECFEFD8E07E
:1000F000DEBFCDBF11E0A0E0B1E0E2E9FDE102C06A
:1001000005900D92AA3FB107D9F723E0AAEFB1E01D
:1001100001C01D92A839B207E1F710E0C4E7D0E0B2
:1001200004C02197FE010E94BC0EC337D107C9F756
:100130000E943C070C94C70E0C940000E091EF0263
:10014000F091F0020190F081E02D682F8FEE92E0A7
:1001500009949091EE029111FCCF91E09093EE0200
:100160004093ED022FEF2093EC021092EB02260F4A
:100170002093EA029093E9029091E902880F892B7B
:100180008093E9028091E802813061F41092E802E4
:100190008091E9028093BB008091BC0083FDF8CF81
:1001A00085EC01C085EE8093BC008091EE02813029
:1001B000E1F38091EB02861710F46091EB02A8EC5A
:1001C000B2E028EA32E0F9018E2F821B861718F47C
:1001D0008D918193F9CF862F0895382F2091A70212
:1001E0009091A602213208F049C08091EE0281115F
:1001F000FCCF42E04093EE023093ED023FEF3093AC
:10020000EC021092EB022093EA02A6E8B2E048EC7E
:1002100052E0FA013E2F341B321718F43D9131930E
:10022000F9CF1092E9022091E902990F922B909355
:10023000E9029091E802913061F41092E802909105
:10024000E9029093BB009091BC0093FDF8CF95EC30
:1002500001C095EE9093BC009091EE029230E1F3D4
:100260009091EC029F3F79F08091EC02803241F056
:100270008091EC02803331F084E005C081E003C05E
:1002800082E001C083E0109285021092A7021092D2
:1002900084020895CF92DF92EF92FF920F931F9303
:1002A000CF93DF936C017A018B01C0E0D0E0CE15D3
:1002B000DF0589F0D8016D918D01D601ED91FC919A
:1002C0000190F081E02DC6010995892B11F47E0182
:1002D00002C02196ECCFC701DF91CF911F910F9102
:1002E000FF90EF90DF90CF900895FC01538D448DE7
:1002F000252F30E0842F90E0821B930B541710F0D1
:10030000CF96089501970895FC01918D828D9817DD
:1003100061F0828DDF01A80FB11D5D968C91928DE9
:100320009F5F9F73928F90E008958FEF9FEF0895E6
:10033000FC01918D828D981731F0828DE80FF11DAF
:10034000858D90E008958FEF9FEF0895FC01918DCA
:10035000228D892F90E0805C9F4F821B91098F73C3
:10036000992708958FEE92E00E94A60121E0892B43
:1003700009F420E0822F0895FC01848DDF01A80F8D
:10038000B11DA35ABF4F2C91848D90E001968F73BD
:100390009927848FA689B7892C93A089B1898C91DC
:1003A00080648C93938D848D981306C00288F389A2
:1003B000E02D80818F7D80830895EF92FF920F93CF
:1003C0001F93CF93DF93EC0181E0888F9B8D8C8D01
:1003D000981305C0E889F989808185FD24C0F62E2F
:1003E0000B8D10E00F5F1F4F0F731127E02E8C8DC8
:1003F000E8120CC00FB607FCFACFE889F9898081B2
:1004000085FFF5CFCE010E94BC01F1CF8B8DFE019F
:10041000E80FF11DE35AFF4FF0820B8FEA89FB8949
:100420008081806207C0EE89FF896083E889F9894D
:1004300080818064808381E090E0DF91CF911F9183
:100440000F91FF90EF900895CF93DF93EC01888D8B
:100450008823C9F0EA89FB89808185FD05C0A889C8
:10046000B9898C9186FD0FC00FB607FCF5CF80814E
:1004700085FFF2CFA889B9898C9185FFEDCFCE0198
:100480000E94BC01E7CFDF91CF91089580E090E01A
:10049000892B29F00E94B20181110C94000008956B
:1004A00090E0FC01EE52FF4F3491FC01E254FF4F0B
:1004B0002491FC01E655FF4FE491EE2309F43BC083
:1004C000332339F1333091F038F43130A9F0323040
:1004D00001F584B58F7D12C0373091F03830A1F02E
:1004E0003430B9F4809180008F7D03C0809180000A
:1004F0008F77809380000DC084B58F7784BD09C04D
:100500008091B0008F7703C08091B0008F7D809381
:10051000B000F0E0EE0FFF1FEA56FF4FA591B49137
:100520008FB7F894EC91611103C020952E2301C080
:100530002E2B2C938FBF0895E4ECF0E04491E0EB78
:10054000F0E02491222399F030E0220F331FF901CB
:10055000E056FF4FA591B491F901EA56FF4F25915E
:1005600034912FB7F894EC91E42BEC932FBF0097C4
:1005700011F460E004C08F3F910521F461E086E052
:100580000C945002E8EDF0E0E491E330F9F048F427
:10059000E130B9F0E230A1F594B5906294BD88BD28
:1005A0000895E730E9F0E83019F1E43049F5209199
:1005B000800020622093800090938B0080938A00BB
:1005C000089594B5906894BD87BD089520918000EA
:1005D000206820938000909389008093880008957C
:1005E0009091B00090689093B0008093B30008950C
:1005F0009091B00090629093B0008093B400089501
:10060000803891050CF0BACFB4CF3FB7F894809101
:10061000460290914702A0914802B091490226B546
:10062000A89B05C02F3F19F00196A11DB11D3FBF2A
:10063000BA2FA92F982F8827820F911DA11DB11DB8
:10064000BC01CD0142E0660F771F881F991F4A95B4
:10065000D1F708952FB7F894609142027091430248
:1006600080914402909145022FBF089585ED8093BB
:10067000BC008091BC0084FDFCCF1092EE02089576
:1006800040911C02262F30E0240F311D213231050C
:10069000DCF42091EE022430C9F4FC0180E090E00B
:1006A000861758F430911C022191DC01A650BE4FF0
:1006B000A30FB11D2C930196F3CF80911C02680FFC
:1006C00060931C0280E0089581E0089582E008951F
:1006D0000895E091550280915402E81730F4F0E05B
:1006E000E855FD4F808190E008958FEF9FEF0895CA
:1006F0009091550280915402981750F4E92FF0E040
:10070000E855FD4F208130E09F5F9093550202C075
:100710002FEF3FEFC90108958091540290E020919E
:100720005502821B91090895CF92DF92EF92FF92BA
:100730000F931F93CF93DF937C01262F972F8A016E
:1007400080918402882391F0C62FD72F6E01C40EAA
:10075000D51ECC15DD0571F06991D701ED91FC91A5
:100760000190F081E02DC7010995F3CF642F822F0E
:100770000E944003C801DF91CF911F910F91FF901C
:10078000EF90DF90CF900895CF93DF931F92CDB776
:10079000DEB76983209184022223D1F02091A70241
:1007A000203240F021E030E0FC013383228380E0FE
:1007B00090E015C080918502E82FF0E0EA57FD4FE8
:1007C000998190838F5F809385028093A70205C0F3
:1007D00061E0CE0101960E94400381E090E00F901D
:1007E000DF91CF910895682F8CE893E00C94C403B7
:1007F000089580E090E00895009769F0FC01019071
:100800000020E9F73197AF01481B590BBC018FEE6F
:1008100092E00C944A0180E090E008958F929F92BC
:10082000AF92BF920F931F93CF93DF93CDB7DEB7F5
:10083000A1970FB6F894DEBF0FBECDBF19A242300C
:1008400008F44AE08E010F5D1F4F842E912CA12CDD
:10085000B12CA50194010E94AA0BE62FB901CA018F
:1008600001501109EA3014F4E05D01C0E95CD801DF
:10087000EC93232B242B252B61F7C8010E94FC034A
:10088000A1960FB6F894DEBF0FBECDBFDF91CF911A
:100890001F910F91BF90AF909F908F900895CF932D
:1008A000DF930E94FC03EC0184E291E00E94FC03D0
:1008B0008C0F9D1FDF91CF9108954F925F926F92A1
:1008C0007F928F929F92AF92BF92CF92DF92EF92E0
:1008D000FF926B017C01B42E9B01AC010E94B70E0C
:1008E000882319F087E291E027C026013701E894B8
:1008F00077F82FEF3FEF4FE75FE7C301B2010E94A8
:10090000B70E81110DC02FEF3FEF4FE75FE7C30137
:10091000B2010E94BA0C18161CF48BE291E00CC0D4
:100920002FEF3FEF4FE75FE4C701B6010E94390E9A
:10093000181684F48FE291E0FF90EF90DF90CF9053
:10094000BF90AF909F908F907F906F905F904F90EF
:100950000C94FC032FEF3FEF4FE75FECC701B601AC
:100960000E94BA0C87FDE6CF20E030E0A901C70164
:10097000B6010E94BA0C87FF09C08DE20E949E005A
:100980004C01F7FAF094F7F8F09402C0812C912C06
:10099000A12C60E070E080E09FE3AB1441F020E028
:1009A00030E040E251E40E94BF0CA394F6CF9B01DB
:1009B000AC01C701B6010E94DC0B2B013C010E9477
:1009C000310D6B017C010E94600D9B01AC01C301E4
:1009D000B2010E94DB0B2B013C014AE0C701B601CA
:1009E0000E940E047C01E80CF91CBB2029F08EE269
:1009F0000E949E00E80EF91EDB2CDD2021F120E094
:100A000030E040E251E4C301B2010E94460E2B01E6
:100A10003C010E94310D4B01A12CB12C4AE0C501D3
:100A2000B4010E940E04E80EF91EC501B4010E9433
:100A3000600D9B01AC01C301B2010E94DB0B2B01D5
:100A40003C01DA94DACFC701FF90EF90DF90CF90AE
:100A5000BF90AF909F908F907F906F905F904F90DE
:100A600008950E94C20E1F920F920FB60F9211248A
:100A70002F933F934F935F936F937F938F939F93A6
:100A8000AF93BF93EF93FF938FEE92E00E94BC0170
:100A9000FF91EF91BF91AF919F918F917F916F9156
:100AA0005F914F913F912F910F900FBE0F901F902C
:100AB00018951F920F920FB60F9211242F938F93B8
:100AC0009F93EF93FF93E091FF02F09100038081E9
:100AD000E0910503F091060382FD12C090818091A0
:100AE00008038F5F8F7320910903821751F0E09103
:100AF0000803F0E0E151FD4F958F8093080301C09A
:100B00008081FF91EF919F918F912F910F900FBE58
:100B10000F901F9018951F920F920FB60F921124ED
:100B20002F933F938F939F93AF93BF9380914202F4
:100B300090914302A0914402B0914502309141024C
:100B400023E0230F2D3720F40196A11DB11D05C010
:100B500026E8230F0296A11DB11D20934102809328
:100B6000420290934302A0934402B09345028091C5
:100B7000460290914702A0914802B0914902019625
:100B8000A11DB11D8093460290934702A093480295
:100B9000B0934902BF91AF919F918F913F912F9157
:100BA0000F900FBE0F901F9018951F920F920FB6C7
:100BB0000F9211242F933F934F935F936F937F93E3
:100BC0008F939F93AF93BF93EF93FF938091B9005F
:100BD000887F803609F49CC068F5883209F45BC0D0
:100BE00090F4803109F454C038F4882309F4F6C035
:100BF000883009F44DC0F6C0883109F44CC0803209
:100C000009F45DC0EFC0803409F468C048F4803353
:100C100009F455C0883309F0E5C08093EC02D8C0D0
:100C2000803509F44FC0883509F45DC0883409F077
:100C3000D9C0D6C0883909F4C7C0A8F4883709F4E8
:100C400067C038F4883609F463C0803709F460C09F
:100C5000C9C0883809F4B8C0803909F45FC0803849
:100C600009F0C0C05BC0803B09F486C038F4803A0C
:100C700009F466C0883A09F47FC0B4C0803C09F426
:100C8000A7C0883C09F4A4C0883B09F48AC0AAC064
:100C90008091E90210C09091EB028091EA029817CE
:100CA00070F5E091EB0281E08E0F8093EB02F0E0B3
:100CB000E853FD4F80818093BB0085EC86C0809314
:100CC000EC028EC0E091EB0281E08E0F8093EB028C
:100CD0008091BB00F0E0E853FD4F80839091EB02E0
:100CE0008091EA026EC0E091EB0281E08E0F80936A
:100CF000EB028091BB00F0E0E853FD4F80838091D0
:100D0000ED0281116DC081E08093E80284EA61C048
:100D100083E08093EE0210924002CFCF8091400298
:100D2000803208F051C0E091400281E08E0F809344
:100D300040028091BB00F0E0E05EFD4F8083BDCFBC
:100D400085EC8093BC001092EE02809140028032CC
:100D500030F4E0914002F0E0E05EFD4F10826091DF
:100D6000400270E0E0911E02F0911F0280E292E0EA
:100D700009951092400236C084E08093EE021092F2
:100D80001D0210921C02E0911A02F0911B020995BB
:100D900080911C02811105C081E080931C02109299
:100DA000FA01E0911D0281E08E0F80931D02F0E0B8
:100DB000E650FE4F80818093BB0090911D02809190
:100DC0001C02981708F479CF85E88093BC000AC00C
:100DD00085EC8093BC001092EE0204C01092EC02ED
:100DE0000E943603FF91EF91BF91AF919F918F9138
:100DF0007F916F915F914F913F912F910F900FBE17
:100E00000F901F901895EFEEF2E01382128288EE99
:100E100093E0A0E0B0E084839583A683B78324E0C9
:100E200031E03183208325EC30E03587248724ECC2
:100E300030E03787268720EC30E0318B208B21ECA7
:100E400030E0338B228B22EC30E0358B248B26EC88
:100E500030E0378B268B118E128E138E148EECE8B9
:100E6000F3E01382128284839583A683B78386E19D
:100E700091E0918380830895CF93DF93CDB7DEB760
:100E800028970FB6F894DEBF0FBECDBF789484B517
:100E9000826084BD84B5816084BD85B5826085BD76
:100EA00085B5816085BD80916E00816080936E0004
:100EB00010928100809181008260809381008091F6
:100EC00081008160809381008091800081608093A7
:100ED00080008091B10084608093B1008091B00067
:100EE00081608093B00080917A00846080937A0062
:100EF00080917A00826080937A0080917A0081608C
:100F000080937A0080917A00806880937A001092B2
:100F1000C100109255021092540210928502109254
:100F2000A7021092EE02DD24D394D092ED0210922B
:100F3000E80261E082E10E94500261E083E10E94E8
:100F400050028091B9008E7F8093B9008091B900E2
:100F50008D7F8093B90088E48093B80085E4809306
:100F6000BC00D092840288E68093A602109285028B
:100F70001092A7028BE690E00E94F30380E090E0DD
:100F80000E94F30381E00E94ED00E091FF02F091E6
:100F9000000382E08083E091FB02F091FC0210826A
:100FA000E091FD02F091FE028FEC80831092070326
:100FB000E0910303F091040386E08083E091010354
:100FC000F0910203808180618083E0910103F091C0
:100FD0000203808188608083E0910103F091020325
:100FE000808180688083E0910103F0910203808119
:100FF0008F7D8083109253021092520238E6C32EE6
:1010000049E8842E912CA12CB12C80915202909110
:10101000530244970CF032C1D0928402C092A602CF
:10102000109285021092A7028BE390E00E94F303D6
:1010300080E00E94ED0041E06EE088E60E94A90099
:1010400010925502809354028CE893E00E9478033A
:10105000782E8CE893E00E947803372C212C82298B
:10106000932990938302809382028CE893E00E94FC
:101070007803782E8CE893E00E947803172D00E027
:10108000802B912B98878F8390938102809380028D
:101090008CE893E00E947803782E8CE893E00E941D
:1010A0007803F72CE12C8E299F2990937F0280935F
:1010B0007E02092E000CAA0BBB0B9C01AD0129502E
:1010C000314041095109A4EBB0E00E949F0BA501FA
:1010D00094010E94800BDA01C9018A559109A10986
:1010E000B10966277727681B790B072E000C880B40
:1010F000990B0E94620D2B013C012F813885C9019B
:10110000330FAA0BBB0B9C01AD01295031404109A3
:101110005109A4EBB0E00E949F0BA50194010E942D
:10112000800BDA01C9018A559109A109B109662725
:101130007727681B790B072E000C880B990B0E94F0
:10114000620DA30192010E945B0C2BED3FE049E48C
:1011500050E40E94DC0B21EE3EE245E652E40E94A0
:10116000460E60937A0270937B0280937C02909388
:101170007D0220914E0230914F02409150025091D9
:1011800051020E94DC0B60934E0270934F028093D9
:1011900050029093510220E030E040EA51E40E9476
:1011A000BF0C60934A0270934B0280934C02909361
:1011B0004D0283E391E00E944F0460914A027091D6
:1011C0004B0280914C0290914D0242E00E945D04DE
:1011D00084E291E00E94FC0340904A0250904B024E
:1011E00060904C0270904D0220E030E040EA51E403
:1011F000C301B2010E94DC0B609376027093770208
:10120000809378029093790220E030E040E251E44C
:10121000C301B2010E94DC0B60936E0270936F02F7
:10122000809370029093710220E030E040E251E43C
:10123000C301B2010E94DB0B6093660270936702E8
:10124000809368029093690220E030E040EA51E424
:10125000C301B2010E94DB0B60935E0270935F02D8
:1012600080936002909361028091520290915302A8
:1012700001969093530280935202C7CE11E008E684
:1012800029E8822E912CA12CB12C1093840200937A
:10129000A602109285021092A7028BE390E00E94B2
:1012A000F30380E00E94ED0041E06EE088E60E94DA
:1012B000A90010925502809354028CE893E00E949A
:1012C0007803F82E8CE893E00E947803FA82198262
:1012D00049815A81842B952B9093830280938202BB
:1012E0008CE893E00E947803F82E8CE893E00E944B
:1012F0007803FC821B826B807C80682A792A70923A
:101300008102609280028CE893E00E947803F82EBC
:101310008CE893E00E947803FE821D82ED81FE81BD
:101320008E2B9F2B90937F0280937E02092E000CC0
:10133000AA0BBB0B9C01AD01295031404109510959
:10134000A4EBB0E00E949F0BA50194010E94800BCA
:10135000DA01C9018A559109A109B10966277727E0
:10136000681B790B072E000C880B990B0E94620DED
:101370006B017C01C301770CAA0BBB0B9C01AD0177
:101380002950314041095109A4EBB0E00E949F0B64
:10139000A50194010E94800BDA01C9018A559109C7
:1013A000A109B10966277727681B790B072E000C66
:1013B000880B990B0E94620DA70196010E945B0C9D
:1013C0002BED3FE049E450E40E94DC0B21EE3EE2CD
:1013D00045E652E40E94460E60937A0270937B02C7
:1013E00080937C0290937D028BE391E00E94FC034A
:1013F00060917A0270917B0280917C0290917D02D3
:1014000042E00E945D0480EB0E949E0084E291E035
:101410000E94FC03C0907A02D0907B02E0907C0294
:10142000F0907D022091760230917702409178020F
:1014300050917902C701B6010E94390E18164CF579
:101440008DE591E00E944F040E942A03C090720231
:10145000D0907302E0907402F09075029B01AC0191
:101460002C193D094E095F0969017A0130E1C31663
:1014700037E2D306E104F10408F414C16093720268
:1014800070937302809374029093750280E691E0EA
:1014900099C040906E0250906F0260907002709000
:1014A0007102A3019201C701B6010E94390E1816FC
:1014B000BCF58EE591E00E944F040E942A03C09083
:1014C0006A02D0906B02E0906C02F0906D029B017A
:1014D000AC012C193D094E095F0969017A0130E11F
:1014E000C31637E2D306E104F10408F4DBC06093CD
:1014F0006A0270936B0280936C0290936D028EE788
:1015000091E00E944F0490E1E92E97E2F92E80E0ED
:1015100090E00E949C0241E0E41AF108C1F7BAC0D1
:10152000A3019201C701B6010E94BA0C87FF15C042
:1015300020916602309167024091680250916902E1
:10154000C701B6010E94390E18163CF48FE891E0ED
:101550000E944F0480E090E0A3C020916602309189
:1015600067024091680250916902C701B6010E946A
:10157000BA0C87FF2AC00E942A03C0906202D09052
:101580006302E0906402F09065029B01AC012C19AB
:101590003D094E095F0969017A0130E1C31637E25E
:1015A000D306E104F10440F0609362027093630299
:1015B000809364029093650280E090E00E949C0218
:1015C00084E991E00E944F0469C020915E0230914D
:1015D0005F024091600250916102C701B6010E9412
:1015E000BA0C87FF32C00E942A03C0905A02D090E2
:1015F0005B02E0905C02F0905D029B01AC012C1953
:101600003D094E095F0969017A0130E1C31637E2ED
:10161000D306E104F10440F060935A0270935B0238
:1016200080935C0290935D0280E090E00E949C02B7
:1016300088EA91E00E944F0480E090E00E949C02C2
:1016400080E090E00E949C0225C00E942A03C09086
:101650005602D0905702E0905802F09059029B0138
:10166000AC012C193D094E095F0969017A0130E18D
:10167000C31637E2D306E104F10440F0609356024A
:1016800070935702809358029093590281EC91E035
:101690000E944F0480E090E00E949C028AEA90E061
:1016A0000E949C028DEC91E00E944F040E94050371
:1016B0002B013C0188EEC82E83E0D82EE12CF12CC2
:1016C0000E940503DC01CB0184199509A609B7091D
:1016D000883E9340A105B10558F041E0C41AD108F5
:1016E000E108F10858EE450E53E0551E611C711CCF
:1016F000C114D104E104F10419F70E944602C5CDDA
:10170000052E97FB1EF400940E94970B57FD07D0FF
:101710000E94AA0B07FC03D04EF40C94970B509533
:101720004095309521953F4F4F4F5F4F08959095CD
:101730008095709561957F4F8F4F9F4F08950E94C0
:10174000CC0BA59F900DB49F900DA49F800D911D73
:1017500011240895A1E21A2EAA1BBB1BFD010DC086
:10176000AA1FBB1FEE1FFF1FA217B307E407F50751
:1017700020F0A21BB30BE40BF50B661F771F881F2D
:10178000991F1A9469F760957095809590959B01C3
:10179000AC01BD01CF010895A29FB001B39FC0016C
:1017A000A39F700D811D1124911DB29F700D811D8D
:1017B0001124911D08955058BB27AA270E94F30BAE
:1017C0000C94FF0D0E94F10D38F00E94F80D20F0EE
:1017D00039F49F3F19F426F40C94C70D0EF4E095EC
:1017E000E7FB0C94C10DE92F0E94100E58F3BA17B5
:1017F000620773078407950720F079F4A6F50C9427
:10180000320E0EF4E0950B2EBA2FA02D0B01B9016C
:1018100090010C01CA01A0011124FF27591B99F066
:10182000593F50F4503E68F11A16F040A22F232F72
:10183000342F4427585FF3CF469537952795A795C2
:10184000F0405395C9F77EF41F16BA0B620B730B69
:10185000840BBAF09150A1F0FF0FBB1F661F771FDA
:10186000881FC2F70EC0BA0F621F731F841F48F48F
:10187000879577956795B795F7959E3F08F0B0CF18
:101880009395880F08F09927EE0F979587950895FF
:101890000E94F10D60F080E891E009F49EEF0E9453
:1018A000F80D28F040E851E071F45EEF0CC00C94A4
:1018B000C70D0C94320EE92FE0780E94100E40F311
:1018C000092E052AB1F3261737074807590738F0BC
:1018D0000E2E07F8E02569F0E025E0640AC0EF630A
:1018E00007F8009407FADB01B9019D01DC01CA0188
:1018F000AD01EF930E94D60C0E94FF0D0E948B0C4D
:101900005F91552339F02BED3FE049E450FD49EC60
:101910000C94DC0B0895DF93DD27B92FBF7740E8E7
:101920005FE31616170648075B0718F4D92F0E94C5
:101930003E0E9F938F937F936F930E94B30EE8E6C2
:10194000F0E00E94CA0D0E94FF0D2F913F914F9130
:101950005F910E94590EDD2351F09058A2EA2AEDC2
:101960003FE049EC5FE3D0785D270E94F30BDF9105
:101970000C94FF0D0E949D0D08F481E008950E94D3
:10198000D30C0C94FF0D0E94F80D58F00E94F10D3D
:1019900040F029F45F3F29F00C94C10D51110C94D3
:1019A000330E0C94C70D0E94100E68F39923B1F307
:1019B000552391F3951B550BBB27AA276217730775
:1019C000840738F09F5F5F4F220F331F441FAA1F09
:1019D000A9F335D00E2E3AF0E0E832D091505040C5
:1019E000E695001CCAF72BD0FE2F29D0660F771F73
:1019F000881FBB1F261737074807AB07B0E809F059
:101A0000BB0B802DBF01FF2793585F4F3AF09E3FDD
:101A1000510578F00C94C10D0C94330E5F3FE4F344
:101A2000983ED4F3869577956795B795F7959F5F20
:101A3000C9F7880F911D9695879597F90895E1E06C
:101A4000660F771F881FBB1F621773078407BA07CB
:101A500020F0621B730B840BBA0BEE1F88F7E09526
:101A600008950E94180E88F09F5798F0B92F992773
:101A7000B751B0F0E1F0660F771F881F991F1AF079
:101A8000BA95C9F714C0B13091F00E94320EB1E09E
:101A900008950C94320E672F782F8827B85F39F09D
:101AA000B93FCCF3869577956795B395D9F73EF412
:101AB00090958095709561957F4F8F4F9F4F0895BA
:101AC000E89409C097FB3EF49095809570956195D8
:101AD0007F4F8F4F9F4F9923A9F0F92F96E9BB278E
:101AE0009395F695879577956795B795F111F8CF0A
:101AF000FAF4BB0F11F460FF1BC06F5F7F4F8F4F75
:101B00009F4F16C0882311F096E911C0772321F06A
:101B10009EE8872F762F05C0662371F096E8862F02
:101B200070E060E02AF09A95660F771F881FDAF759
:101B3000880F9695879597F90895990F0008550F86
:101B4000AA0BE0E8FEEF16161706E807F907C0F043
:101B500012161306E407F50798F0621B730B840B4B
:101B6000950B39F40A2661F0232B242B252B21F425
:101B700008950A2609F4A140A6958FEF811D811DC5
:101B8000089597F99F6780E870E060E008959FEFFF
:101B900080EC0895DF93CF931F930F93FF92EF9202
:101BA000DF927B018C01689406C0DA2EEF010E945F
:101BB000590EFE01E894A5912591359145915591D5
:101BC000A6F3EF010E94F30BFE019701A801DA943E
:101BD00069F7DF90EF90FF900F911F91CF91DF9108
:101BE000089500240A941616170618060906089583
:101BF00000240A9412161306140605060895092EE9
:101C00000394000C11F4882352F0BB0F40F4BF2B57
:101C100011F460FF04C06F5F7F4F8F4F9F4F089597
:101C200057FD9058440F551F59F05F3F71F047958D
:101C3000880F97FB991F61F09F3F79F08795089572
:101C4000121613061406551FF2CF4695F1DF08C091
:101C5000161617061806991FF1CF869571056105AE
:101C600008940895E894BB2766277727CB0197F956
:101C700008950E949D0D08F48FEF08959B01AC011B
:101C800060E070E080E89FE30C94BF0C0E94590E66
:101C90000C94FF0D0E94F10D38F00E94F80D20F019
:101CA000952311F00C94C10D0C94C70D11240C94C4
:101CB000330E0E94100E70F3959FC1F3950F50E004
:101CC000551F629FF001729FBB27F00DB11D639FEE
:101CD000AA27F00DB11DAA1F649F6627B00DA11D94
:101CE000661F829F2227B00DA11D621F739FB00D3A
:101CF000A11D621F839FA00D611D221F749F3327AA
:101D0000A00D611D231F849F600D211D822F762F42
:101D10006A2F11249F5750409AF0F1F088234AF01F
:101D2000EE0FFF1FBB1F661F771F881F915050408B
:101D3000A9F79E3F510580F00C94C10D0C94330E11
:101D40005F3FE4F3983ED4F3869577956795B79512
:101D5000F795E7959F5FC1F7FE2B880F911D96952C
:101D6000879597F908959B01AC010C94460E0E944B
:101D70009D0D880B990B0895EE0FFF1F0590F491B0
:101D8000E02D099481E090E0F8940C94C70EF8944B
:021D9000FFCF83
:101D920000000000DD014A0175012402A601840150
:101DA200980100000000C4039403F90368038C0344
:101DB200780369030D0A006E616E00696E66006F3A
:101DC2007666006176674779726F00416E676C656F
:101DD200206F6620696E636C696E6174696F6E2034
:101DE200696E20582061786973203D20006461008B
:101DF20077726F6E6720706F7374757265202D2015
:101E0200646F75626C6541766572616765007772B1
:101E12006F6E6720202D20417665726167650073C1
:101E22006168690077726F6E6720202D204C6F7792
:101E3200417665726167650077726F6E67202D204B
:101E4200646F75626C654C6F774176657261676528
:101E520000636865636B206572726F72002D2D2DB1
:101E62002D2D2D2D2D2D2D2D2D2D2D2D2D2D2D2DA0
:101E72002D2D2D2D2D2D2D2D2D2D2D2D2D2D2D2D90
:0A1E82002D2D2D2D2D2D2D2D0000EE
:00000001FF
